:020000040800F2
:10000000F8FF0724090500088F8A05087D8A05087E
:10001000918A05089D8A0508A98A05080000000044
:10002000000000000000000000000000B58A050884
:10003000B78A050800000000859A05089D9A050802
:1000400099020008958B0508A78B0508AD8B05085C
:10005000AD0C060899020008298B05082F8B0508AE
:10006000358B05083B8B0508418B050865BE0508E7
:1000700075BE050885BE050895BE0508A5BE050820
:10008000B5BE0508C5BE05089902000801E70508C8
:100090009902000807E7050899020008478B050840
:1000A000C18B0508C78B0508CD8B0508D38B0508C8
:1000B000D78B0508DD8B0508E38B0508798C0508CF
:1000C0007F8C0508858C05088B8C050809CF0508F1
:1000D00015CF0508438C0508498C05084F8C050889
:1000E0006B8B05089B8B0508000000000D8C050834
:1000F000138C05082B8C0508258C0508D5BE050832
:10010000990200088D150608E98B05089902000878
:10011000558C05085B8C0508018C0508078C0508C3
:10012000E5BE0508F5BE050805BF050815BF0508AD
:1001300025BF050899020008A18B0508990200084F
:1001400000000000000000000000000000000000AF
:1001500035BF050845BF050855BF0508618C050872
:100160009902000899020008990200089902000803
:100170009902000899020008990200080000000096
:100180009902000899020008678C05086D8C050823
:1001900021CF050899020008990200089902000879
:1001A00099020008990200089902000899020008C3
:1001B00099020008990200089902000899020008B3
:1001C00099020008990200089902000899020008A3
:1001D000C58A0508B98A050899020008990200082D
:1001E0009902000899020008990200089902000883
:1001F0009902000899020008990200089902000873
:100200009902000899020008990200089902000862
:10021000318C0508378C05083D8C050899020008CB
:1002200099020008990200089902000800000000E5
:1002300099020008990200080000000099020008D5
:100240009902000899020008990200089902000822
:100250009902000899020008990200089902000812
:100260009902000899020008990200089902000802
:100270009902000899020008738C0508000000002C
:100280009902000899020008990200080000000085
:080290000000000099020008C3
:10029800FEE70000254AD2F8883043F47003C2F81C
:1002A8008830234A136803F00F03062B05D8136818
:1002B80023F00F0343F0070313601E4B1A6842F044
:1002C80001021A6000221A611B4A19680A4018497B
:1002D8001A600A68120705D50A6822F00F0242F070
:1002E80007020A60002215499A61DA611A62996266
:1002F8001349D962134919635A639963DA63196414
:100308005A64196821F4802119601A660E4B1B681B
:100318001B0C1B04B3F1005F02D20C4B01221A60C4
:100328000B4B43F2D2021A60704700BF00ED00E0A9
:1003380000200052004402587FEDF6EA0002020253
:100348000000FF01800201010010005C08810051DB
:1003580000400052F0B5D1B020220021624C05A81F
:1003680048F018FC4C2200210DA848F013FCC022CC
:10037800002120A848F00EFCE36823F00403E360A2
:1003880063689804FCD54AF011FA42F202039842D5
:100398004FD9564BD3F8F42042F00202C3F8F420A8
:1003A800D3F8F43003F002030193019B0023029376
:1003B800A36943F44043A361A36903F44043029350
:1003C8004B4BDA6A42F00102DA62DB6A03F001039E
:1003D8000293029B444A93699904FCD53F21012268
:1003E8004FF4803305270591A02102254FF480663C
:1003F8000DA81A95CDE90D23CDE918710022042125
:1004080040231F920A93CDE91D12CDE91B15032144
:10041800CDE91023CDE906120822CDE91655CDE91C
:100428000823CDE90B634EF011FBB8B1314857F002
:10043800B7FE002303932E4BDA6A22F00102DA6238
:10044800DB6A03F001030393A36943F44043A36108
:10045800A36903F440430393039BBBE7F0231924E8
:100468004FF48022CDE92A430023CDE920234FF41D
:100478000013CDE9300020A84293CDE92C57CDE9EF
:100488002E564FF093F808B11B48D0E7199B05A8E2
:1004980018996343B3FBF1F33021B3FBF1F201FB8D
:1004A80012321A990032B3FBF1F118BF012259F048
:1004B8001BFC08B11148BAE70C4B1A6842F08002DD
:1004C8001A60D3F8F42042F00202C3F8F420D3F8FB
:1004D800F43003F002030493049B4AF075F94EF0DC
:1004E800ADFA51B0F0BD00BF0048025800440258B0
:1004F80000040058C8410608DA410608F441060815
:100508000446DFF82CD00B490B4A0C4B03E051F89A
:10051800040B42F8040B9A42F9D300200849094A0F
:1005280001E041F8040B9142FBD3204657F0C2BFCB
:10053800F8FF07246061080800000024AC040024C8
:10054800AC040024E0A7002440F8044B40F8045B06
:1005580040F8046B40F8047B40F8048B40F8049B97
:1005680040F804AB40F804BB40F804CB40F804DB87
:1005780068467047024B5A6902605861002070470C
:10058800643C0024024B5A6912685A61704700BFE4
:10059800643C0024024B9A69C0E9002198617047C5
:1005A800643C0024044A93691968916110B15A683F
:1005B80018461047704700BF643C002438B504460D
:1005C800044DAB690BB1A34200D338BD0120FFF73E
:1005D800E9FFF6E7643C0024C46005614661876171
:1005E800C0F81C80C0F82090C0F824A0C0F828B03B
:1005F800C0F82CD080ED0C8B80ED0E9B80ED10ABFD
:10060800C0F808E0FFF7B6BF124D6C6908B50CB921
:1006180057F03CFF60602046FFF7D0FF23686B610E
:100628002046C468056946698769D0F81C80D0F8F7
:100638002090D0F824A0D0F828B0D0F82CD090ED95
:100648000C8B90ED0E9B90ED10ABD0F808E00120DC
:10065800704700BF643C002410B50021044600F038
:1006680059FB18B914B120460DF056FD10BD0021F4
:1006780000F050BB10B50121044600F04BFB18B93F
:1006880014B120460DF048FD10BDFFF7E5BF10B5C9
:1006980001220C4600F08AFC18B914B120460DF06E
:1006A8003BFD10BD00F082BC00F010BC484308B50B
:1006B8000830FFF7DCFF40B1044B9A6A02B11060C2
:1006C8000021C0E900129862083008BD643C00248B
:1006D800034678B153F8042C083812B153F8081CB3
:1006E800116053F8083C13B15A6000F0EFBB024B9D
:1006F8009A62FAE7704700BF643C00242DE9F04194
:1007080000252A4C0326D4F8AC7200210131431885
:100718009A0803F00303BA5C5B0042FA03F303F0A0
:100728000303022BF2D00901D4F8B8324FEA910C36
:1007380003EB001069B300EB8C0C03681A0725D192
:10074800D4F8B8125A1A99424FEA121E4FEA921771
:100758000EF003021AD8D4F8BC125200994215D9E7
:10076800D4F8AC8206FA02F318F8071041FA02F23C
:100778000B4302F00302012A08D13F2D08F8073085
:1007880004EB45030CD80135A3F8CCE204306045EE
:10079800D3D145B1013D04EB4503B3F8CC02B2E730
:1007A800C4F8C822F2E7BDE8F08100BF643C002429
:1007B800F0B4194F01224FF0030CD7E9AD53C01A1A
:1007C8000409C10904F0070680096B5CB240A60859
:1007D80023EA02036B5404F00301D7F8C032D7F8B8
:1007E800AC52984238BFC7F8C0022A5C49000134AD
:1007F8000CFA01F304F0030122EA03024B00AA55A4
:10080800A608D7F8AC52AA5D42FA03F303F0030333
:10081800022BEBD0F0BC7047643C0024F8B521F003
:100828000F066FF06042164F0546331A154C00212B
:100838001A44C4F8BC62C4F8AC02D300A7FB032373
:100848005B0A9F005A1CA6EB8316C4F8B032073720
:100858001544C4F8B86202EBD702C4F8B45248F0A1
:1008680099F9002301214FF0FF322381A4F84C139A
:10087800C4F85423C4F85033C4E9B033F8BD00BFFA
:10088800F32C23FA643C0024024A138901331381B0
:10089800704700BF643C0024024A1389013B13815E
:1008A800704700BF643C0024024B1889003018BF11
:1008B80001207047643C0024F8B51C4C0022032733
:1008C800238904F1080504F50076C4F850230133A0
:1008D800C4F8C822238155F8042F130719D1D4F876
:1008E800B812531A8A424FEA13104FEA931C00F0C9
:1008F80003030ED3D4F8BC125B008A4209D2D4F8A1
:10090800AC1211F80CE04EFA03F202F00302012ACD
:1009180002D0AE42DFD1F8BD07FA03F343EA0E0373
:1009280001F80C30FFF7EAFEF3E700BF643C00244F
:1009380079B3F8B5041F174E032704EB810554F863
:10094800043F1A0719D1D6F8B8125A1A99424FEA31
:1009580012104FEA921C00F003020ED8D6F8BC120F
:100968005200994209D9D6F8AC1211F80CE04EFAA7
:1009780002F303F00303012B02D0A542DFD1F8BD37
:1009880007FA02F242EA0E0201F80C20FFF7B6FE5F
:10099800F3E77047643C00242DE9F04F894C83B09D
:1009A800D4F8B052D4F8C832AD00AA46002B72D0A1
:1009B80000274FF0030BC4F8C872002D6AD000203E
:1009C80004E00130AA46A84280F0E980D4F8AC12CD
:1009D800820800F003038A5C5B0042FA03F303F029
:1009E8000303032BEDD1844600220023013303EBDC
:1009F8000C054FEA950E05F0030511F80EE06D00A1
:100A08004EFA05F505F00305022DEFD01B01D4F8C9
:100A1800B8124FEA930801EB0C1183B301EB880875
:100A28000D682B0728D1D4F8B832A5EB030C9D42EA
:100A38004FEA1C194FEA9C1C09F003031CD3D4F895
:100A4800BC625B00B54217D2D4F8ACE20BFA03F5EE
:100A58001EF80CA04AFA03F345EA0A0503F003035B
:100A6800012B09D13F2A0EF80C5004EB420500F285
:100A780093800132A5F8CC9204314145D0D1002AA7
:100A880000F09B80013AD4F8AC1204EB4203B3F8AF
:100A9800CCC2AAE7AA46D4F8C432AB4280F0898017
:100AA80003F1010A0025AC462F4604E0012A32D0A2
:100AB800013757451FD24FEA9708D4F8AC1207F010
:100AC800030611F8083001EB0800760043FA06F235
:100AD80002F00302022A19D0032AE7D102223D4676
:100AE80001374FF0000C02FA06F6574523EA0603D1
:100AF80001F80830DFD323890022C4F8C452013B2F
:100B0800C4F8C022238103B0BDE8F08FBCF1000F08
:100B180039D13D46CCE74FEAD70BD4F8B42207F0D9
:100B2800070912F80B105A4441FA09FC1CF0010F8E
:100B380029D03801D4F8B83253F800C01844BCF1B1
:100B4800000F14D06A4640F28E410CF09BFC009BCB
:100B58003BB10DF03BFDDDE900010DF007FD0DF0A7
:100B68004BFDD4F8B43203EB0B0213F80B1001233E
:100B780003FA09F921EA09011170D4F8AC3203EB40
:100B8800080013F8083003224FF0010C02FA06F6A9
:100B980023EA060303708BE7C4F8C8326CE7D4F87D
:100BA800C832002B7FF407AFD4F8C432AB42FFF44D
:100BB80077AF002D7FF476AF9DE7D4F8B052AD0043
:100BC800FFE600BF643C0024044B00211A89C3F8E7
:100BD800C81201321A81FFF7DFBE00BF643C00244F
:100BE8004B4A00232DE9F04FD2F8BC1283B0D2F85B
:100BF800B8421F46D2F8ACE29946D2F8B022091B97
:100C080043601E4601609C4683601C46019319465A
:100C1800C3609A4603614FEA8208436183619EF884
:100C280000304FEA4A0A43FA0AF303F00303012BA0
:100C38003BD0002B56D0022B02D10136013446603E
:100C4800013188450CBF0125002532D08B0801F001
:100C5800030A1EF803304FEA4A0243FA02F212F07E
:100C6800030214BFAB464FF0010BBBF1000F41D19B
:100C7800012AD6D15D461346012C21D0022C02D17F
:100C88004269013242614C4501D9A1468461DBB910
:100C98008B0801F0030A1EF803304FEA4A0A43FAA8
:100CA8000AF303F00303012BC3D101361C46466047
:100CB800C6E7012B14BF2B4645F00103012CDDD1FB
:100CC800026901320261DEE7BC4502D96746C0F815
:100CD8000CC0ADB1019B36011B01C0E9016303B033
:100CE800BDE8F08F019A0CF1010C1C46013201920B
:100CF8008260A5E7012A14BF2B4645F00103BBE734
:100D08008B08AC4601F0030A1EF8033089E700BFE0
:100D1800643C00240F302DE9F04707094FD06A4E94
:100D28003389002B4BD1B6F84C330D46002B0CBF42
:100D38004FF0010E4FF0000E45D1D6F8C042D6F85C
:100D4800B0C2A44538D9D6F8AC02611E00220144CD
:100D58001AE00132974250D913F00C0F1ED101321C
:100D6800974240F2A88013F0300F1CD1013297420D
:100D780040F2A48013F0C00F1AD10132974240F21A
:100D8800A0800134644517D211F8013F13F0030F16
:100D9800DFD013F00C0F4FF00002E0D013F0300F4B
:100DA8004FF00002E2D013F0C00F4FF00002E4D081
:100DB800013400226445E7D3BEF1000F12D00024AD
:100DC8002046BDE8F087D6E9D4239A42B5D35EF031
:100DD800AFFCD6F8C042D6F8B0C2A445EFD94FF060
:100DE800010EB0E75EF0A4FCD6F8C042D6F8B0C257
:100DF8004FF0010EA445A6D8E1E7A400A11A012AE4
:100E080001F1010803D1631C9B08C6F8C032D6F86B
:100E1800C4324FF0010A08F0030C4FEA980EA342BF
:100E280001F102010CFA0AFC38BF23468C42C6F8CD
:100E3800C4320AFA0CF310F80EC043EA0C0300F8A7
:100E48000E3012D34FF0020E01F003038808D6F8D3
:100E5800ACC201315B001CF800908C420EFA03F31F
:100E680043EA09030CF80030EED2D6F8B8A24FEAEC
:100E78000819D6F8503312010AEB090400211F445F
:100E88002046C6F8507347F085FEEB0798D5002337
:100E9800D6F8B4124FEAD80208F007084AF8093021
:100EA8000123885C03FA08F848EA0008204601F89C
:100EB8000280BDE8F087A40001349FE7A400023453
:100EC8009CE7A400033499E7643C0024F0B41C4E6A
:100ED800338993BB88B3D6F8B8320121D6F8B472F7
:100EE800C01A0409C50904F0070C83097A5D01FAE0
:100EF8000CF122EA010204F003017A55A508D6F89C
:100F0800C0220327D6F8AC02934238BFC6F8C032D5
:100F1800C25C4900013407FA01F304F0030122EA34
:100F280003024B004255A508D6F8AC02425D42FACE
:100F380003F303F00303022BEBD0F0BC704700BFB0
:100F4800643C002410F00F020DD11749D1F8B832D3
:100F5800834208D810B4D1F8BC42844205D8104660
:100F68005DF8044B704700207047C31AD1F8AC12E3
:100F78001C099B0904F00300CB5C400003411046A8
:100F880003F00303012BEBD1013023189A0803F077
:100F980003038A5C5B0042FA03F303F00303022BAA
:100FA800F2D00001DCE700BF643C00242DE9F84FD3
:100FB8000B460746002800F0AF805C4E34890029B4
:100FC80073D0002C73D1D6F8B80201F10F0CD6F803
:100FD800B032A7EB000A4FEA1C1C4FEA83094FEA1C
:100FE8001A1303F1010EF14540F29C80D6F8AC02C9
:100FF8004FF001084FEA9E0B0EF0030510F80BB0F6
:101008006D004BFA05F505F00305022D53D025B9FF
:10101800013408EB040565454FD3E04541D021D89C
:10102800444464454ED2002A41D0D6F8B4224FEA4F
:10103800DA1A03F00703084612F80A10194101F0FA
:101048000101FFF767FE044688B34FEA08123946E4
:1010580047F05CFD33892BBB3846FFF7A9FB2046D8
:10106800BDE8F88F9C444FF003094344604600F004
:1010780003044FEA900ED6F8AC120130640011F860
:101088000E50984209FA04F425EA040401F80E40C7
:10109800EDD14FEA9C02D6F8C0329A4238BFC6F862
:1010A800C0223C462046BDE8F88F002CD5D000244D
:1010B8002046BDE8F88F08F101080EF1010EF14550
:1010C80098D1AAE703EB0C014344994210D94FF099
:1010D800020E03F003009A08D6F8AC420133400030
:1010E800A55C99420EFA00F040EA0500A054F0D140
:1010F800D6F8C432ACEB08023C4607EB08108B422A
:101108004FEA021238BF0B460021C6F8C43247F036
:1011180041FD2046BDE8F88F01461846BDE8F84F66
:10112800FFF7F8BD4FF0010877E700BF643C0024E3
:1011380010B58AB0044603A8FFF752FD059A049B30
:10114800204600920749039A00F030FF069A099B4F
:1011580020460549CDE90032DDE9072300F026FFE6
:101168000AB010BD4C420608704206082DE9F04747
:10117800DFF85CA106464949DAF8B82200F016FF04
:10118800DAF8B022920075D00024454FDFF8449178
:10119800DFF844810CE0012D48D02E224149304629
:1011A80000F004FFDAF8B02201349200A24261D9BB
:1011B80004F00305A006DAF8AC124FEA45050BD097
:1011C800A308CB5C43FA05F505F00305022D2BD0E7
:1011D800032DE0D16D22E1E7A4464FEA9C000CF014
:1011E8000303085C5B0040FA03F39B0703D10CF18F
:1011F800010C9445F1D3ACEB04027F2A0CD9920977
:10120800494630462CF03F0400F0D0FEDAF8B03200
:10121800B4EB830F2ED2002539462201304600F068
:10122800C5FEDAF8AC12CBE73D22B7E7DAF8B82208
:101238002301D258424523D01B4B9A4222D01B4B44
:101248009A4225D01A4B9A421ED01A4B9A421BD06A
:10125800194B9A421AD0194B9A4217D0184B9A42F6
:1012680018D0184B9A4217D0174B9A420CBF4D22F0
:10127800682293E730461549BDE8F04700F059BBAE
:1012880054228BE74C2289E7532287E7412285E7DE
:10129800442283E7462281E742227FE70842060884
:1012A800404206084842060870CA0608F4C0060804
:1012B80058D60608A4D40608A4BD060858BD0608D2
:1012C80050C60608A4C6060834CC0608B442060868
:1012D800643C002424420608C8D70608064B026866
:1012E8005B6A5968C1F31E018A4203D3521A02602D
:1012F800184670471B68F4E7643C0024014441F237
:101308000553884204D398B2002808BF01207047CB
:1013180003EB431310F8012B5340F2E7034B044A45
:101328005A620022C3F80422704700BF643C0024BC
:10133800500A07082DE9F0478146884600293FD022
:10134800FFF7DCFF1F4B82465C6A0CB9204633E08E
:1013580094F907300025E668002B06F1FF3613DB09
:10136800013604F11807B54212D32468EDE777195E
:10137800424648467F08BB1D54F8231047F068FCD6
:101388000028CCBF3D463E46731B012BEFD8E7E74C
:10139800236933F815309A4510D163695B5D984528
:1013A8000CD14246494657F8250047F009FC28B9B0
:1013B8006068C0F31E002844BDE8F0870135D2E715
:1013C8000120F9E7643C00242DE9F84380460E46E5
:1013D800FFF7B0FF0246002840F09280FF2E03D9A5
:1013E80049494A480CF0D0F8494C751CD4F8040215
:1013F80090B1D4E982132B448B4229D92944FFF7B1
:1014080051F90746D8B90246D4F80C12D4F80402A8
:10141800FFF748F9C4F80472802D2F4638BF80279B
:101428003846FFF724F9C4F80402D0BB2846FFF772
:101438001EF9C4F8040298BB28460CF06DFED4F8D7
:1014480008322B44C4F80832D4F80432002BE3D015
:10145800D4F80C324146D4F804724FF000081D4409
:1014680032461F44C4F80C52384647F04FFB07F881
:10147800068031463846FFF741FF636A8146D3E963
:101488000253AB422AD36D000A2D38BF0A25C5EB9B
:10149800C5001830FFF7EBF848B9C4F80402CBE7E9
:1014A8002F460023C4F80872C4F80C32D0E700F1C4
:1014B8001803626A03EB85030260036103EB4503CB
:1014C80043615368D268C3F31E03C0F80C80134409
:1014D800426863F31E02C0E901256062636AD3E9CA
:1014E80003025B6922F81090821D1E54636A43F858
:1014F8002270DA680132DA605A68C2F31E020244C6
:101508001046BDE8F88300BFEB75060878C40608E6
:10151800643C002410B5044647F074FB014620469D
:10152800BDE81040FFF750BF07B5019001A8FFF7CD
:10153800D5FE019A036933F8120003B05DF804FB85
:1015480007B5019001A8FFF7C9FE019B4269D05C6D
:1015580003B05DF804FB07B5019001A8FFF7BEFED4
:10156800019B063350F8230003B05DF804FB13B564
:10157800019001A80C46FFF7B1FE019B4269D25CBD
:10158800063350F82300226002B010BD2DE9F8435D
:101598001D46002307468846036016460B60136005
:1015A8002B60154BDFF854905C6A0CB14C4505D1A3
:1015B8002B68326813442B60BDE8F8833B6801331D
:1015C8003B60E268D8F8003013446269C8F800301C
:1015D800E368D1188A4207D32046FFF7B3FC2B688B
:1015E800246818442860E0E7336812F8010B0133D7
:1015F80003443360EEE700BF643C0024500A070848
:101608002DE9F8430D4B0E4F5C6ADFF83880DFF8A0
:1016180038900CB1BC4201D1BDE8F88304F118053B
:10162800E36805EB8306B54201D32468F1E755F872
:10163800042B4146484600F0B9FCF4E7643C00241A
:10164800500A0708E4750608F0A7060830B5002315
:10165800202411F8012F0AB9027030BD120600F1DA
:1016680001051ED50BB1047028460B78114A03F00A
:101678007F0363B9013A12F8013F0546013013F0C0
:10168800800F0BD003F07F032B700123E1E712F9E1
:10169800015B002DFBDA013BDBB2EAE700F8013C15
:1016A800E9E7012B04BF047028460B7800F8013BDA
:1016B8000223CEE7B642060838B5446805460368F3
:1016C8000C449C420FD9037B1BB1002106480BF048
:1016D8005BFF1034806824F0070408342146FEF7C5
:1016E800D6FF2C60A86038BD78C4060870B50446DB
:1016F8000E4611461546FFF7DFFF31462A46D4E964
:101708000130184447F02EFA62682A44626070BDBE
:1017180070B5466804468E42354628BF0D460121FD
:10172800FFF7CAFFA368681C721B5919184447F0D1
:1017380019FA6368A06801332844636070BD38B53E
:101748000446081E4FF0000508BF012065602060B0
:10175800FEF782FF2573A06038BD38B505460C46F4
:101768000131FFF7ECFF6C6038BD00230160C0E970
:10177800013201230373704738B514460546FFF755
:10178800DEFF024B2560636038BD00BFF516000818
:10179800037B10B5044613B98068FEF785FF002364
:1017A800A36010BD38B505461020FEF755FF044666
:1017B8002946FFF7C4FF204638BD10B5044648B196
:1017C800037B13B98068FEF76FFF2046BDE8104021
:1017D800FEF76ABF10BD000038B5037B04460D460E
:1017E8001BB1002106480BF0CFFE01688068294430
:1017F800FEF74DFF2368A0601D441844256038BDDE
:1018080078C4060838B504460D46FFF755FFD4E9F5
:1018180001301D441844656038BDD0E9002310B577
:101828009A42044602D10121FFF7D6FF0021D4E9EC
:101838000132D154A06810BD10B50C460121FFF744
:10184800E1FF047010BD7F29F8B50C46CEB204D86C
:101858000121FFF7D7FF0670F8BD06F03F06B1F586
:10186800006FC1F3871546F0800607D265F03F0583
:101878000221FFF7C7FF46700570EDE705F03F0549
:10188800B1F5803FC1F3073745F0800508D2032141
:10189800FFF7B8FF67F01F03457003708670DBE73A
:1018A8000421A40CFFF7AEFF07F03F0364F00F0418
:1018B800857063F07F03C67004704370CCE738B559
:1018C80005460C46084647F09DF92146024628463B
:1018D800BDE83840FFF70ABF10B51446FFF718FFF8
:1018E800047010BD10B51446FFF712FF047010BD48
:1018F80043688B422CBF5B1A00234360704738B59E
:101908001546426804460B468A4203D929448A424E
:1019180001D8436038BD8068521A0144184447F022
:1019280021F96268521B6260F4E70846114648F0E4
:10193800BBB870B5054608460E4647F063F904463D
:1019480020B102466B68314628689847204670BD2A
:101958002DE9F74F019191469DF8301006460D9AF2
:1019680011F0DF0FA2EB09023DD030290CA9244F5A
:101978000EBF4FF010080F464FF0010813F0800417
:1019880035D002EBD2746410151B002C36DDA2464C
:10199800D045C34673683946A8BFD3463068AAEB1A
:1019A8000B0A5A469847BAF1000FF1DCB9F1000F5B
:1019B80005D04C4473684A46019930689847002D11
:1019C8000DDD2C44A845C14673683946A8BFA94611
:1019D8003068A5EB09054A469847002DF2DC2046F9
:1019E80003B0BDE8F08F074F4FF01008C6E713F0BB
:1019F800010501D11446C8E71546D7E70024D5E705
:101A080014A8060803A806082DE9F043074689B07C
:101A18000020119D9DF84880139E8DF80F0002B399
:101A2800814219DA2D2249428DF80F20109A08AC0C
:101A38000DF1100EA2F10A00B1FBF3FC03FB1C121E
:101A4800092A8CBF1218303204F8012D74450FD0C2
:101A58008B420DD86146EFE7A80727D52B228DF8D2
:101A68000F200029E2D130230DF11F048DF81F301B
:101A780015F040099DF80F301CD023B301222B46E6
:101A88000DF10F013846013ECDE90082FFF760FFF6
:101A9800814608AA2B4621463846121BCDE9008606
:101AA800FFF756FF484409B0BDE8F0836A07D8D568
:101AB8002022D4E7002BECD004AA9442E9D904F8F8
:101AC800013C013CE5E79946E3E700002DE9F04FCA
:101AD80093B080461E46C8079DF874300C46914660
:101AE8001C9D0693DDE91E7A0BD4A10703D1226859
:101AF8007A4B9A4205D020460DF0A0FB400040F0FA
:101B0800010415F0810306D1069A302A03D15745FE
:101B1800B8BF57469A4620460DF1280B10F0E8FD4D
:101B2800002818DBAA0712D52B238DF828300DF1D1
:101B38002903E806F6B21DD5B9F1020F0DD13021FF
:101B48001A4602F8021B711C5970134612E06B0703
:101B580001D52023E9E75B46EBE7B9F1080F61D12E
:101B6800A9054FF030021A7049BF06F10E02013381
:101B78005A700233002215F0200F0EA91A70A3EB39
:101B88000B030B914FF0100105930CBF13462C2348
:101B9800BAF1010F8DF82720C8BF45F04005CDE9FF
:101BA8000C1215F04001CDE90263079144D0234699
:101BB8000CA90BA8CDE900920DAA10F06DFC0378D2
:101BC80081462D2B06D18DF8273000F101090D9B98
:101BD800013B0D93BAF1010F3CDD0D9C079B544569
:101BE800B8BF54462BB19DF8273003B10134059B8B
:101BF8001C44A7422BDD15F00103A7EB040427D1F1
:101C080026461C4625F001054EB12023019634498D
:101C18004046009300231A46FFF79AFE06463023F3
:101C2800069319E0B9F1100FA4D130211A4602F831
:101C3800021B06F1170187E70AAB0DAA0CA90BA82E
:101C4800CDE90093234610F027FC8146C2E7002423
:101C58000026D7E700242646079BDBB19DF82730EE
:101C680053B1002301220DF127014046013FCDE980
:101C78000032FFF76DFE0644059B5BB1002301228D
:101C880059464046CDE90032059AFFF761FE059BAB
:101C98000644FF1A069BBAF1010FC8BF57460D9AB2
:101CA80049460093404601972B46FFF751FE0644EC
:101CB8004CB1202301940A494046009300231A4658
:101CC800FFF746FE06440B980EAB984201D0FEF78C
:101CD800EBFC304613B0BDE8F08F00BF20C9060802
:101CE8002EC707082DE9F04316468BB08046994663
:101CF800B207129F3CD416F0040F0CBF0023202318
:101D080000930A46139B202102A80AF0D5FAF3058E
:101D180004460DD5431C1F2B0AD80AAA00211444D7
:101D2800252204F8202C0AAA1C461A4402F8201C72
:101D380016F040051ED09DF808302F2B4FF00003F9
:101D48001AD8012202A94046013F013CCDE90032E0
:101D5800FFF7FEFD0DF109010546334622464046D0
:101D6800CDE90097FFF7F4FD28440BB0BDE8F083F8
:101D78002B23C5E702A9F0E702A91D46EDE70000FD
:101D88002DE9F04F804689B0144600260B461D46C3
:101D980013F8012B0AB1252AF9D1A94208D26F1AE2
:101DA800D8F80430D8F800003A463E449847294607
:101DB8000B78002B00F0F18001314FF020094FF033
:101DC800000A0A4612F8015B15B94FF00A0C1DE02B
:101DD8002D2D03D14AF0010A1146F2E72B2D02D12D
:101DE8004AF0020AF8E7202D02D14AF0040AF3E784
:101DF800212D02D14AF0080AEEE7302D22D14AF00F
:101E0800400AA946E8E70CFB0525303D0F4611F8C6
:101E1800012BA2F130000928F5D92E2A35D17A787C
:101E28002A2A11D04FF0000B4FF00A0C0F4611F878
:101E3800012BA2F1300009280BD80CFB0B2BABF1BE
:101E4800300BF3E70025C0E754F8042B023722EAE9
:101E5800E27B3A786C2A08BF01373978002900F00C
:101E68009C8064297ED028D850292DD010D8A1F183
:101E78004502022A40F28480D8F80430012239460B
:101E8800D8F80000984701364AE04FF0FF3BE0E7FA
:101E9800622939D049D85829EED14A1C21F00F01BE
:101EA800CDF804A002F006020F39C2F11003C9B23E
:101EB800CDE90295009100225CE071293FD00BD852
:101EC80067295DD97029D7D16123CDF804A0009383
:101ED8001023CDE90295EEE77529DED07829DCD00C
:101EE8007329C9D154F8041B0846059146F08AFEA7
:101EF800BBF1FF3F0246059902D0584528BF5A4614
:101F08005346CDE9009507E054F8042B5346CDE934
:101F180000953AB1042223494046FFF719FD0644CB
:101F2800791C33E705222049F6E754F8042B534679
:101F380007A98DF81C200122CDE90095ECE707A937
:101F480054F8040BFFF713FBBBF1FF3F014604D025
:101F5800079A934538BFCDF81CB05346079ACDE988
:101F68000095D9E761230122CDF804A000930A2344
:101F7800CDE9029554F8041B4046FFF745FDCEE72E
:101F880007344B465246404624F00704CDE9005B2F
:101F9800B4EC020BFFF7A6FEC1E7304609B0BDE876
:101FA800F08F00BFF8A70608FDA706080EB403B512
:101FB80003AA52F8041B0192FFF7E2FE02B05DF893
:101FC80004EB03B0704703781A060AD503F07F03C1
:101FD8004022134207D110F8012F02F0C0018029D6
:101FE80005D01846704723EA02035208F1E702F0C9
:101FF8003F0242EA8313EEE7421C1046013203789F
:1020080003F0C003802BF8D070470023814201D829
:102018001846704711F8012D02F0C002802A18BF37
:102028000133F3E701440346002099421A4600D8D9
:1020380070471278013302F0C002802A18BF0130BD
:10204800F3E700007F289DBF024B185CC0F34000F7
:102058000020704725A806087F289DBF024B185C02
:10206800C0F3C0000020704725A806087F289DBF40
:10207800024B185CC0F380000020704725A80608B2
:102088007F289DBF024B185CC0F38010002070476A
:1020980025A806087F2809D8064B1B5C13F00C0FEF
:1020A80006D1A0F15F03584258417047002070479D
:1020B8000120704725A806087F289DBF024B185CA1
:1020C800C0F300100020704725A806087F289DBF90
:1020D800024B185CC0F340100020704725A8060882
:1020E80008B50246FFF7E8FF00B12032104608BDE8
:1020F80008B50246FFF7EAFF00B1203A104608BDCE
:102108003038092884BF20F020000738704710B500
:1021180001440246E5240020914203D8B0FA80F039
:10212800400917E012F8013B30B103F0C003802BDF
:1021380011D10138C0B2EFE7BF2B09D9F72B09D865
:10214800DB0803F0060344FA03F303F00300E3E7B4
:102158001B06E1D510BD0020FCE7023981420B4681
:1021680003D31A880239002AF8D002331B1A5810F0
:10217800704770B51C09944216D2121B01EB44013A
:1021880003F00F0315460E46012D31F8024B18BF18
:102198003468013D24FA03F4A4B220F8024BF2D1CA
:1021A80004B9013A104670BD0022FBE7F0B5059D61
:1021B8000024521B2746A5420FD16D000023441965
:1021C8000D449A4214D104EB42031FB1012102339A
:1021D80024F81210181A4010F0BD31F8146033F8C2
:1021E80014C066443E4420F81460370C0134E2E71A
:1021F80035F813603E4424F81360370C0133E0E7E8
:10220800F0B4049E0025921B2C46AE420AD17600FB
:10221800002385190E449A420FD105EB4201F0BC08
:10222800FFF79BBF31F815703C4433F81570E41B79
:1022380020F8154024140135E7E736F813100C444C
:1022480025F8134024140133E5E72DE9F043079CF2
:102258000239DDF828E0154684464FF6FF78A4EBEE
:102268000209DDE9087655B900EB42011FB10123E7
:10227800023120F81230BDE8F043FFF76EBF31F8A5
:10228800024F013D4444264405EB0904AC4296BF85
:1022980033F8024B4FF6FF744444744486EA040E44
:1022A800360C17FA8EF74FEA144E2CF8027B3F0CC7
:1022B800D9E7022938B538BF0221044680680D469F
:1022C80018B12368B1EB930F07D96900FEF7DFF95E
:1022D8002368A06065F39F03236038BD38B50546C1
:1022E8000C20FEF7B9F903782A78044662F3000354
:1022F8006FF34103037028682368C0F39D0060F3FF
:102308009F03400023606B686360FEF7A5F9A06037
:102318002A68A968C2F39D02520046F0F7FB2046DE
:1023280038BD4B0018441A4410B509B9084610BD09
:1023380030F8023D32F8024D1B1B002B02DB04D1A2
:102348000139F2E74FF0FF30F1E70120EFE710B570
:10235800044638B18068FEF7A7F92046BDE810406A
:10236800FEF7A2B910BD38B50C4602210546FFF7A5
:10237800A0FF002C2B78B6BF01220022644262F332
:1023880000032B7000236B6004B938BDD5E9013216
:10239800581C686022F81340240CF5E70023C0E9B4
:1023A80000338360704728B103789B0702D48068A4
:1023B800FEF77AB9704738B505460C464968FFF705
:1023C80078FF22782B78A86862F300032B70636883
:1023D800A1686B606268BDE83840520046F096BB61
:1023E8000A4629B90178426062F30001017070471A
:1023F800FFF7B9BF08B5FFF7D1FFBDE80840FFF701
:10240800EFBF30B4046862F39F040022046004F054
:10241800FC0444F00204C0E901210470194630BCF0
:10242800FFF7DEBFF8B517461E469DF81850042181
:102438000446FFF73EFF3846314695B1002F76F146
:1024480000030EDA78424FF0010366EB460122786A
:1024580063F3000200232270636050EA010302D193
:10246800F8BD0023F3E7D4E901325D1C656022F86A
:102478001300030C0A0C43EA014311461846ECE723
:102488002DE9F84353EC102B1E460378074610EE4F
:10249800105AF20F62F30003037047F6F07313EA61
:1024A800164207D13B786FF300033B7000237B6033
:1024B800BDE8F8839A42F5D0C6F30A52A2F2FF3477
:1024C800002CEFDB04D10121BDE8F843FFF74BBF37
:1024D800A2F2EF38C6F31306B8F1000F46F48016DF
:1024E800B8BFA2F57878332C4FEA281840DCC4F13D
:1024F8003404C4F12002A4F12003E54006FA02F2F4
:1025080026FA03F3E64000241543A1461D4341463D
:102518003846FFF7CEFEC7F80480B9F1000F05D0A2
:102528004FEA49020021B86846F034FBA4B105FA25
:1025380004F2BB68C4F1100423F8192009F1010959
:10254800C4F12002A4F12003E54006FA02F226FABB
:1025580003F3E64015431D434B469845A8D0BA6897
:1025680022F813502D0C013345EA0645360CF4E7E2
:10257800A2F233430C34002B04F00F04B8BFA2F2CC
:1025880024434FEA2319C2E72DE9F8438F18C2F311
:102598005B0204460D46511C9846089EFFF789FECB
:1025A8002278002329461FFA86FC68F3000263603C
:1025B8002270B942084602D3401BBDE8F88302786E
:1025C8000131A2F13003092B05D9A2F14103192BDE
:1025D80014D8A2F13703B342EED2D4E901E0F046B1
:1025E8008146B8F1000F10D100EB4E0213B1023250
:1025F80020F81E30121A52106260DAE7A2F1610365
:10260800192BD9D8A2F15703E5E7B9F8002008F14A
:10261800FF3802FB0C3329F8023B1B0CE1E7F8B545
:10262800044615461E46C1B1531E4FF0FF371E44DF
:10263800E90020460F310909FFF73BFE2378002106
:102648006FF30003616023704DB9D4E9011000EB0A
:102658004101FFF782FD6060F8BD0127E8E700232C
:102668000F290ADC3278013D3E4402FA01F201F1F9
:10267800080143EA02039BB2F2D162681039501C88
:102688006060A06820F81230DEE738B50B780446A1
:1026980005780A4603F0010305F00100181A0BD16A
:1026A80061685368994208D30AD89268A068FFF70E
:1026B80038FEEB0748BF404238BD4FF0FF30F8E71F
:1026C8000120F6E7884210B5044601D0FFF773FEF3
:1026D80023786FF30003237010BD884210B50446B9
:1026E80001D0FFF768FE63683BB12378C3F30002AB
:1026F800C2F1010262F30003237010BD88421FB5C6
:10270800044601D0FFF757FE626862B901212046EE
:10271800FFF7CFFD0123A26813806360237843F09D
:102728000103237010E02378D9070FD56FF3000356
:10273800A168237001230846ADF80E3000930DF10F
:102748000E03FFF75DFD606004B010BD511C20460C
:10275800FFF7AFFD0123D4E90121ADF80E30009356
:1027680008460DF10E03FFF721FD6060D6E72DE95D
:10277800F0470E4649680546174601B12AB9314661
:102788002846BDE8F047FFF716BE02F10F042409FA
:102798002144FFF78EFD706817F00F0EA96804EB4F
:1027A8000007B36808BF4FF0100E002207F1004879
:1027B80003EB4009CEF1100E08F1FF384FEA480844
:1027C80001EB080C0146E24611BB6FF0010322FA47
:1027D8000EF208F1020858430CEB00092CF800200F
:1027E80004F1004203FB0493013A023352001846F5
:1027F80046F0D0F90346434417B133F8022D8AB1A5
:102808002B786F60327862F300032B70BDE8F08795
:1028180039F8023D01391A4322FA0EF312042AF854
:102828000239D1E7013FE7E7F0B50E46496885B0C0
:102838000546144601B12AB931462846FFF7BBFDC3
:1028480005B0F0BDFFF735FD2346A868D6E901219C
:10285800FFF78FFC2B7868600246317861F300033C
:102868002B70DB07ECD5002321097768ADF80E3013
:102878009F4201D08B420FD18F42E1D9B36804F057
:102888000F0433F81110012303FA04F4013C214228
:1028980013D0ADF80E3008E0B06830F8130050B12E
:1028A80001238F42ADF80E30E8D8A96801234AB950
:1028B8000B806B60C4E70133DAE7BDF80E30002BFC
:1028C800BED0F2E7009308460DF10E03FFF76EFC49
:1028D8006860B5E773B553680C46496806461546FF
:1028E800994206D308D89268A068FFF71AFD002815
:1028F80002DA23462C461D4623782A78616853401D
:10290800DB071BD401313046FFF7D3FC6B68B06896
:102918000093AB68D4E90121FFF748FC7060237885
:102928007268C3F30003002A0CBF002303F00103FD
:10293800327863F30002327002B070BD3046FFF7A0
:10294800B8FC6B68B0680093AB68D4E90121FFF765
:1029580057FCE3E7F7B553680C4649680546164641
:10296800994206D324D89268A068FFF7DAFC0028B9
:102978001EDA2346012734461E46237832786168DA
:102988005340DB0716D501312846FFF792FC7368E0
:10299800A8680093B368D4E90121FFF707FC6860D1
:1029A8006A682B7892B962F300032B7003B0F0BD0C
:1029B8000027E2E72846FFF77CFC7368A8680093C5
:1029C800B368D4E90121FFF71BFCE8E7227802F09D
:1029D8000102002FE7D0C2F10102E4E72DE9F04F30
:1029E80015464A680E4685B06B6804469A423EBF53
:1029F8000B462E461D4633787168DB0721D42B78A9
:102A080013F001071DD1FFF754FCA068B6683B46D8
:102A1800D5E9011C99420BD100EB4101FFF79DFB61
:102A2800237860606FF30003237005B0BDE8F08F72
:102A380036F813203CF813502A4020F813200133AD
:102A4800E8E701312046FFF734FCAB6832782F788D
:102A5800009382EA070302F0010207F00107D6F8A3
:102A680004E0DB43A068C7F1000803F001038146D6
:102A78001FFA88F8C3F1000C1FFA8CF1C2F1000CA0
:102A880002911FFA8CF1F4460191B168A1F1020A92
:102A98006968A1EB0E010391BCF1000F15D100EBA1
:102AA8004E011BB10123023120F81E30FFF755FB00
:102AB800606033782A78C3F30003C2F3000213403E
:102AC800227863F300022270AFE73AF802BF0CF1F4
:102AD800FF3C019981EA0B0B03995A4401EB0C0B5B
:102AE800E34597BF0099C34631F802BB88EA0B0B50
:102AF80098BF009102995F4402EA070B3F0C120C41
:102B08008BEA010B13FA8BF329F8023B1B0CC3E782
:102B18002DE9F84F16464A680D46044673689A42EE
:102B28003EBF0B4635461E462B786968DB072ED418
:102B3800327812F001082AD1FFF7BBFBA9686D684B
:102B48004246A768D6E9013CED1A934210D15B00D2
:102B5800002219443B44954213D103EB4503DB1B88
:102B68005B10636023786FF300032370BDE8F88F70
:102B780031F812003CF81260304327F81200013295
:102B8800E3E731F8120023F812000132E3E70131DC
:102B98002046FFF78EFB2F7869684FF0010907F090
:102BA8000107AD68A068C7F10008A5F1020E8246CA
:102BB8000D461FFA88F8D6E901233678A2EB010BF7
:102BC80006F00106C6F1000C1FFA8CFC45B900EBB3
:102BD8004101FFF7C2FA2378606043F00103C4E7BC
:102BE8003EF8022F013D88EA020217440BEB05026A
:102BF800AA4296BF33F8022B62468CEA02021644B8
:102C080047EA0602360C3F0CD24319FA82F22AF838
:102C1800022B4FEA1249D9E7F0B516464A680C4626
:102C280085B0736805469A423EBF0B4634461E4639
:102C38002778616833785F4017F001073AD1FFF7CA
:102C480038FB237813F0010328D1A2686468A868C8
:102C5800D6E90117641A994210D1490000230A44A1
:102C68000144A34214D101EB4301FFF776FA2B7814
:102C780068606FF300032B7005B0F0BD32F8136085
:102C880037F813C086EA0C0620F813600133E2E730
:102C980032F8136021F813600133E2E7CDE90277D7
:102CA80001977368A8680093B368D4E90121FFF716
:102CB800CCFADCE70131FFF7FCFA3378A868DB438C
:102CC80003F0010303932378DB4303F0010302932A
:102CD8000123019373680093B368D4E90121FFF7D6
:102CE800B4FA2B78686043F00103C4E74B682DE918
:102CF800F04F044685B00E4615460BB1536843B9EC
:102D080023786FF3000323700023636005B0BDE8E8
:102D1800F08F814234D1FFF7E1FAA5420646074613
:102D280000D105466B68204671681944FFF7C1FA5F
:102D380022680021A068C2F39D02520045F02AFFD4
:102D4800B368A16800220193AB68D6F804A0029387
:102D58006B6801EB4A0C03938B1E00931346039890
:102D6800904239D1636038462A78337853402278C4
:102D780063F30002227005B0BDE8F04FFFF7E7BA31
:102D8800824204D1FFF7AAFA05460746CAE7002798
:102D9800C8E738F8029F0EF1FF3E029899443BF8C5
:102DA800023B30F8120000FB0393A8F800301B0C1C
:102DB800BEF1000FEDD1E6460CF1020813B1C6468C
:102DC800ACF800300098AEEB010E0132C446023078
:102DD8004FEA6E030090C2E7DDE9008BD646002378
:102DE800E6E74B6870B50546144613B11378DA0761
:102DF80006D52B786FF300032B7000236B6070BD32
:102E0800636823B90121BDE87040FFF7ACBA0846F2
:102E1800FFF764FA06462046FFF760FA01210446E8
:102E28002846FFF7A0FA636883B1A3681B88DB070D
:102E380004D5324629462846FFF758FF0123D4E92E
:102E480001210846FFF795F9606038B93046FFF769
:102E58007EFA2046BDE87040FFF779BA324631461F
:102E68003046FFF743FFDEE72DE9F04F0C46516887
:102E78008FB01646013105460293FFF71AFA7268B9
:102E88000021A8680132520045F084FE2B782046C4
:102E98006FF300032B7000236B6071680131FFF73B
:102EA80008FA31462046FFF786FA029BD4F80480D8
:102EB8005B684345019341D8029BD4F808A09F68FA
:102EC800AB6803933CD33A4641465046FFF729FA8C
:102ED800002832D10123039A606013806B60237845
:102EE8006168C3F3000200290CBF002202F001024E
:102EF80062F30003029A2370337812785340DB0799
:102F080018D56B682A78003318BF012363F30002D1
:102F18002A70636873B14FF0FF310BA8FFF76AFAA4
:102F28000BAA29462846FFF7D5FC029A21462046D7
:102F3800FFF7D0FC0FB0BDE8F08F01DA0023CDE732
:102F4800019B03F10040002301384FEA400937F89C
:102F5800102012F4004F03F1010155D04FEA480246
:102F68004FF0000C9BB208F1010102F1020E04922D
:102F7800C3F1100B2AF818C00AEB0E02D64661609E
:102F88000592059A964543D3019A37F81000012A0D
:102F980000FA03FB09D907EB0900C3F1100C30F85C
:102FA800020C20FA0CF04BEA000B0198049A091A5B
:102FB80003985244696001F10041013900EB410175
:102FC800059109F102010991B91E089161680491FE
:102FD80004980199814228D300F1004BC3F11007EE
:102FE80000200BF1FF3B0AEB4B0BDA4571D96FF070
:102FF80000416B682BB15A18039830F81220002A48
:1030080071D06FF0004173E052000B4692B2A0E716
:10301800BEF8008008FA03F242EA0C0C2EF802CB44
:1030280028FA0BFC1FFA8CFCABE71088002732F853
:10303800021CB84641EA00410998101AB1FBFBF19D
:103048000690DDF818C00898079062450BD81088DC
:103058000744BFBB0598023A20F802190499059065
:1030680001396160B2E70798BCF8009030F802EFC8
:1030780019FA87F907900EFA03F040EA18481FFA80
:1030880088F048431FFA80FE000CA9EB0E0EC0EB37
:1030980027402CF802EB00EB2E47D6E739F802EF71
:1030A8000EFA03FE4EEA1848B0F800E01CFA88FC55
:1030B800F44420F802CB4FEA1C4C8242EED8674415
:1030C8000139C6E74FF0000CDDF820900698E0467D
:1030D800F3E7BBF8002042FA03F1BA40014390B28B
:1030E8002BF8021981E7013B6B6082E7013B6360C3
:1030F8006368002B3FF4F3AE5A183AF81220002AFE
:10310800F4D0ECE6F0B51F464B6885B004460D4692
:1031180016464BB11378DA0706D47B68012B0BD11E
:10312800BB681B88012B07D123786FF3000323703A
:103138000023636005B0F0BD01212046FFF713F9B5
:103148007368002BF6D02846FFF7C8F805463046C6
:10315800FFF7C4F8064601A8FFF720F97368B3B172
:10316800B3681B88DB070AD52A4621462046FFF7A5
:10317800BDFD3B462246214601A8FFF775FE012307
:10318800D6E901210846FEF7F4FF706048B901A8A6
:10319800FFF709F92846FFF7DAF83046FFF7D7F8BE
:1031A800C8E72A4629462846FFF7A0FD3B462A4697
:1031B800294601A8FFF758FED0E7D0E901210023EE
:1031C80001EB420210B5914205D30278D20748BFFD
:1031D8005B42184610BD32F8024D44EA0343F2E759
:1031E80030B5D0E90124002304EB4202944206D30F
:1031F80002780120D20748BF5B420B6030BDB3F5AF
:10320800004F04D232F8025D45EA0343EEE700209E
:10321800F4E72DE9F74F0C9F8E46019219B3FC187D
:10322800012500261A46AA46B446D0E90189B8F114
:10323800000F1AD1019900294BD0002A49D1002B3F
:1032480047D0BEF1000F40D03B7845B1DB43027850
:10325800C3F3C01502F00103ED1A18BF0125284673
:1032680003B0BDE8F08F3C46DAE739F8021B0CF1F1
:10327800100C41EA0646BCF1070F02DC08F1FF38E2
:10328800D5E790F800B0B1B21BF0010F1FBFC943DA
:103298005AFA81F189B24FEA112A52B93DB1CDB239
:1032A800B5FA85F56D09ACF1080C360AE3E7154661
:1032B800F9E7C9B2BEF1000F04D004F8011C013CC3
:1032C800013AF0E704F8011BFAE73B4413F8013C24
:1032D800BBE7037813F0010F14BFFF210021BEF1F3
:1032E800000F14BF3846204645F054FCB7E70000ED
:1032F800D0E901329FED0C0B9FED0D6B02EB430300
:103308009A4205D30378DB0748BFB1EE400B7047FC
:1033180033F8021D07EE101AB8EEC77BA0EE067B45
:10332800B0EE470BECE700BF000000000000000013
:10333800000000000000F0402DE9F84F4468804686
:10334800894616469B469DF828A00B9D9CB982B1DC
:10335800561E2B4616F8012F18463AB9302303702B
:10336800002300F8013F401BBDE8F88F03F8012B4C
:10337800F0E72846F2E76400ABF13A0B2046FDF788
:103388006BF907462246D8F8081045F0BFFB2846D7
:103398002A4607EB040CACF1020300219F421C46AD
:1033A80025D9303114463B46392988BF594404F899
:1033B800011B9C45194624D83846FDF775F93EB1DE
:1033C800304645F01FFC23463044B0421C4628D8FE
:1033D80098F80030DB0744BF2D2304F8013B2B4647
:1033E800621E9A4222D80023601B2370BCE72488FF
:1033F80044EA0141B1FBF9F423F8024909FB14112D
:10340800CCE7098802330029D3D0BAF1000F06D0DF
:10341800231A032B03D1941C82F801A020462246CC
:10342800B9E710F8012D03F8012BCEE719781078C9
:1034380003F8010B02F80119D3E7D0E902329342ED
:103448003DBF5A1C826018784FF0FF307047036800
:1034580010B5044613B14068FDF726F92046BDE8CB
:103468001040FDF721B90000F8B50C461F46164676
:1034780005461020FDF7F0F8054B8460C0E900749C
:103488003444C4606B60034B2860AB60F8BD00BF78
:10349800433400085734000802690A2A10B5044664
:1034A80035D1836A013383620123A269E3626369C8
:1034B8006261226F2361002A31D0616E8A423BBF6C
:1034C800501CA16E0022206738BF8A5CA2613BB9FC
:1034D800E26963662261226A23676261626AA261A5
:1034E80063690D2B08D10A22A3699342626103D153
:1034F800D4E901039847A061A369013306D1636940
:103508005A1C03D00A2B1CBF0A23A36110BDC36A2F
:10351800092A04BF073323F007030133C5E7D4E9B9
:1035280001039847A061DBE738B504460D462069DA
:10353800431C1AD00A2806D10DB1636BB3B12046DB
:10354800FFF7AAFFF3E7FEF77DFD0028F7D123690F
:10355800232B08D12046FFF79FFF23695A1CE6D08A
:103568000A2BF7D1E3E75C2B02D00025284638BDAB
:1035780063690A2BF9D12046FFF78EFFDFE70000C9
:103588000369272B2BD0222B29D0A3F16201132901
:1035980023D8174ACA40D2071AD54269272A1ED00B
:1035A800222A1CD0722B1CD1662A06D18269272AAE
:1035B80015D0222A13D0722B15D14369622B0CD156
:1035C800806927280BD0A0F1220358425841704740
:1035D800662BF0D14269722AE8D00020704701209A
:1035E8007047662BF6D0622BF7D14369722BE6E75A
:1035F80011000900436E2DE9F74F0446A3B1036F8C
:1036080093B929216030FEF717F92369E3616369EB
:103618002362A3696362A36E1A7822615A78626191
:103628009B78A36103232367002301212046636558
:10363800FFF77AFFA36A216B054663640029E36AF2
:10364800A36407DA0723013184F84C30216303B0FF
:10365800BDE8F08F04D00623013984F84C30F5E733
:10366800002836D02046FFF75FFF0523E56A84F877
:103678004C306FF00043013DD4E90F20D11830F8E9
:1036880011108D42E3D019D9A16B8A4207D30831B2
:103698004900FCF7FCFFA36B20640833A363D4E95B
:1036A8000F32591CE16322F81350236B0133236353
:1036B800CDE7013AE263226B013A2263E26BD1184B
:1036C80030F811108D42F4D3C1D0022384F84C3065
:1036D800BDE72669771C02D184F84C00B7E720467D
:1036E800FFF74EFF0746002800F0CC8184F84C50C5
:1036F8002369752B23D0622B07D163690025722BB0
:1037080022D13E464FF0020821E0722B0ED16369A8
:10371800622B54D0662B3E460CBF3D46002514BF95
:103728004FF001084FF002080B2311E0662B48D137
:1037380063693D46722B0CBF3E460026EFE7002525
:103748004FF001082E46EFE72E464FF001080C23F4
:1037580094F84C20002A38D184F84C30B8F1000F86
:1037680008D02046FFF798FEB8F1020F02D1204694
:10377800FFF792FE23692046222B14BF272322231A
:103788000093FFF789FE2369009A934220D1636969
:103798009A421DD120464FF00308FFF77DFE2046D0
:1037A800FFF77AFE35B1636E23B9B34904F16000BF
:1037B800FEF785F84FF0000B04F1600A31E00025B0
:1037C8009FE700252E46A846AEE79A42C6D03EE7B8
:1037D8004FF00108E6E7009A9A4218D004F1500B1E
:1037E80021690DB17B2938D05C2940F03D81204604
:1037F8000191FFF751FED4F810900199002E00F0C6
:10380800848004F15000CB46FEF71DF8E4E00099EF
:1038180004F150000BF1010BFEF715F82046FFF7F5
:103828003BFE2369591C00F02181B8F1010F02D138
:103838000A2B00F01B81C345CDD3594604F1500033
:10384800FEF756F801212046FFF76EFE2046FFF7E7
:1038580097FE00287FF44CAFF9E62046FFF71CFEE0
:1038680021697B290AD15846FDF7E6FF2046FFF774
:1038780013FE7B215846FDF7DFFFB1E728215046AC
:10388800FDF7DAFFD4F8649000222169481C0FD0B4
:103898003ABB3A290CD07D290AD0212921D1606967
:1038A8007238012822D8A0693A2801D07D281DD174
:1038B800D4E91921881810F8010C3D2808D1A2EB89
:1038C800090249445846FDF711FF636E013B6366E0
:1038D80050462921FDF7B0FF2C215046FDF7ACFFDB
:1038E800C7E721F020005B280AD10132C9B250464F
:1038F8000192FDF7A1FF2046FFF7CEFD019AC4E72C
:103908005D2808BF02F1FF32F0E7B9F1620F00F05D
:10391800898028D8B9F14E0F70D010D8B9F1220F8C
:103928001FD0B9F1270F1CD0B9F10A0F63D0A9F144
:10393800300BBBF1070F73D84FF0030968E0B9F1FA
:103948005C0F0ED0B9F1610F6FD0B9F1550FEED100
:1039580094F84C200C2A20D15C2104F15000FDF78A
:1039680072FFCB463EE0B9F1740F61D00BD8B9F1C4
:103978006E0F60D0B9F1720F60D0B9F1660FD6D171
:103988004FF00C0B2EE0B9F1760F5AD0E0D3B9F115
:10399800780FCCD14FF0020906E0B9F1750F0CBFD2
:1039A8004FF004094FF008094FF0000B11E02046D2
:1039B800FFF772FD226910460192FEF761FB0028AD
:1039C80000F06C81019A4FEA0B1B1046FEF798FB3A
:1039D800834419F1FF39EAD2BBF1FF3F0BD0274BE3
:1039E8009B453DD894F84C300B2B2DD1594604F10A
:1039F8005000FDF728FF4FF0000B0FE720480AF0B2
:103A08007BFD2046FFF748FD2269303A02EBCB0BDD
:103A18006269303A072ADFD8B9F10109F1D1DBE749
:103A28005C21EEE64FF0080BDCE74FF0070BD9E717
:103A38004FF0090BD6E74FF00A0BD3E74FF00D0B09
:103A4800D0E74FF00B0BCDE7BBF1FF0F08D80C2BDD
:103A580006D15FFA8BF104F15000FDF7EDFECAE7DD
:103A6800012384F84C30C6E7C9B2F4E7C3453CBF2C
:103A7800032384F84C30E0E6EAA80608FFFF1000AC
:103A8800F3A806083046FEF7E7FA054620691DB98F
:103A98005F2801D07F283ED9082304F15005C1B220
:103AA80084F84C302846FDF7C7FE2046FFF7F4FCA3
:103AB8002069421C1BD128467B4EFDF7AEFE00252F
:103AC800074656F8041B384645F0AAF800281CD1CA
:103AD8000E35EDB2112D84F84C507FF4B8AD734B10
:103AE800D3F81032002B0CBF10230E23EEE5FEF79F
:103AF800B3FA40B920695F2805D07F2803D8FEF7BC
:103B0800B5FA0028D7D0217CCCE7FFF6A0AD013567
:103B1800242DD6D19BE5FEF7A9FA68B321692E2991
:103B280035D10A2384F84C3004F150060A27304670
:103B3800FDF789FE2046FFF7AFFC2069431C3FF4E0
:103B480086AD002D35D120F02003452B31D16521DC
:103B5800304684F84C70FDF776FE2046FFF79CFC53
:103B680021692B2901D02D29E7D13046FDF76BFEBD
:103B78002046FFF791FCE0E723692E2B04D160690A
:103B8800FEF774FA0028C9D10026494D31E009230F
:103B9800302984F84C30C7D1656945F02005A5F176
:103BA8006203162B97BF434D0025DD4005F0010544
:103BB800BAE7FEF751FA28B121692E290DD184F808
:103BC8004C70D2E72069FEF751FA0028F4D1236936
:103BD8002E2BF1D05F2BCBD039E521F020034A2BD7
:103BE800C3D1ECE7652F01D0632F00D10135013631
:103BF80001352F7817B12369BB42F3D12046FFF76F
:103C08004BFC0FB9012361E5212F07D123693D2B17
:103C1800F8D12046FFF740FC392357E52E2F0FD166
:103C280023692E2B02D163692E2B01D05C234DE52D
:103C38002046FFF731FC2046FFF72EFC0D2345E513
:103C48000335334615F8027C632F0FD0652F0DD04E
:103C5800194AD35C03F0FD0284F84C30542A01D091
:103C6800582B13D1636B01336363F0E415F8012C0F
:103C780001362169914207D12046FFF70DFC3346F2
:103C8800652FE5D00235DDE7632FFAE7552A02D024
:103C9800592B7FF4DCAC636B013BE5E701238346DA
:103CA80084F84C309EE600BFB0A90608643C0024A6
:103CB800A5A806080120400081A906087FB501AD26
:103CC8000646742085E80E00FCF7C6FC0446034649
:103CD80095E8070043F8046B002583E807000123F3
:103CE8006FF001021420C4E90A320A22C4E90C5513
:103CF800C4E90E23FCF7B0FC2021206404F1500035
:103D0800FDF71DFD294604F16000FDF718FD236C41
:103D1800256720461D802561C4E90555FFF7BCFBD2
:103D28002046FFF7B9FB2046FFF7B6FB2046FFF712
:103D380061FCA36C012B06D094F84C30052B1CBFFA
:103D4800062384F84C30204604B070BD30B585B0E9
:103D5800054601AC2046FFF787FB284694E80E008D
:103D6800FFF7ACFF05B030BD30B585B0054601465C
:103D780001AC204621F0D6FF284694E80E00FFF754
:103D88009DFF05B030BD10B5044690B1C3684068CA
:103D9800984704F15000FDF7FBFC04F16000FDF7C3
:103DA800F7FC206CFCF780FC2046BDE81040FCF7CF
:103DB8007BBC10BDD0E90432013B036152F82300FB
:103DC8007047C1F17F51036901F57F1101F57F51FA
:103DD8003F311944436953F821007047F8B5446AE4
:103DE80006460D46B4B1D4E900030B44834222D9F8
:103DF8000831002201442046FCF754FC0246B8B9B9
:103E0800616820460831FCF74DFC63682360336A1B
:103E180063603462802D2F4638BF802707F1080081
:103E2800FCF71AFC0023076004464360706202E056
:103E380023682B44236060680834054444F8045C14
:103E48002044F8BD38B50D460446D0E903138B422B
:103E580008D3103140698900FCF719FCE3686061F8
:103E68001033E360D4E90432591C216142F823502D
:103E780038BDF8B50D461F4604461646D0E900136E
:103E88008B4208D310318068C900FCF700FC216818
:103E9800A06010312160D4E901104B1C636000EB75
:103EA800C10350F8312065F3170240F83120DE7065
:103EB8005F60F8BD10B48469CAB20023616C5DF814
:103EC800044BFFF7D6BF10F001021CD110F003031A
:103ED8000CD000F00F03062B15D00A2B11D10009C6
:103EE8000D3803288CBF00200120704770B102797B
:103EF8003A2A08D02D2A08D18068B0FA80F0400903
:103F080070471046704701207047184670470000F8
:103F1800C20702D540F001007047830711D003099A
:103F280000F00F00062803D1D80040F002007047C7
:103F38000F2B0CD0102B0CD00E2B084808BF0E20CE
:103F4800704740B103793A2B05D180687047062045
:103F580070471E2070470248704700BFE4D006082B
:103F6800C0D7060838B505460C46FFF7ACFF38B190
:103F78002846FFF7CDFF0BF0B5FA031B584258410E
:103F880038BD38B5D3070D46144602D542F00100B6
:103F980038BD0C21FFF722FF4FF49D730560C0E97F
:103FA8000134F5E72DE9F04105460F46144616465B
:103FB800B6B93146204612F02FFE064600F1080831
:103FC800CCB90C212846FFF709FF4FF49D73014631
:103FD8000760C0E901362846FFF734FF012008E0F2
:103FE800013E28463146FFF7ECFEFFF76CFF00283C
:103FF800DED1BDE8F0812846013CFFF7DBFE014633
:10400800FFF786FF48F824000029D9D08B07D7D1BD
:10401800686A00F108039942D2D34268134499426E
:10402800CED24B681B0A0233A2EB83034360C7E777
:10403800F7B5866905460F4696F84C40082C1FD1FF
:10404800D6E91510FDF7C0F9902F04460ED1C1002E
:10405800002205F1280041F002010AF0E3FD28B131
:104068004268716C2846FFF78CFF02E0200140F09F
:1040780002000146284603B0BDE8F040FFF7E2BE63
:10408800092C07D100223346D6E9151008F080FB29
:104098000246E6E70A2C12D1009600230122D6E94F
:1040A800151008F0F5FB04460C212846766CFFF73E
:1040B80095FE4FF49D730660C0E90134D9E70B2CD7
:1040C80013D1D6E915100A2906D8FDF77DF930B1C4
:1040D800000140F00600CCE7FDF72CF9F7E7D6E938
:1040E80015210D4810F0FAFEDDE70C2C0FD1D6E9AA
:1040F800151010F0E7FF214607462846766CFFF7B3
:104108006DFE4FF49D730660C0E90137B1E72001E9
:1041180040F00A00ADE700BF58D6060810F00102CB
:1041280004D040F00100086001207047A8B110F0E9
:1041380003030FD102793A2A0ED1836813F00100E4
:104148000B600AD19A0708D11868044BC31A584261
:1041580058417047104670471846704720C90608EE
:104168000021FFF7FFBE0121FFF7FCBE2D2A2DE934
:10417800F04F044685B0884616461D460BD10021EF
:10418800FFF71FFEB8B1870702D10379922B12D02F
:1041980005B0BDE8F08F922A20D10021FFF711FE6B
:1041A800014640B1880706D10B79952B0AD1013D0C
:1041B8002046FFF7FFFDA6F11E03012B6AD8A9468A
:1041C8002F461AE0962BF6D12046FFF7F3FD4B68F1
:1041D80023F0FF0343F092034B60D9E7962A08BF08
:1041E8000135E8E71E2E48D1FFF7BDFFC8B958468C
:1041F800FFF7B6FF002808BF574607F1FF3AB9F1A5
:10420800000F0ED009F1FF3920464946FFF7D9FDC6
:10421800236962698346DB1B42F82300B9F1000F6A
:10422800E0D10021514530D16D1A012DB0D0A6F151
:104238002303022B01D92A2E70D1691E2046FFF7CD
:10424800C0FD01A9FFF76AFF00285BD0232E3BD0F1
:10425800242E3CD0252E0CBF4FF018094FF0220910
:10426800AF1E002F36DA002D40F06A812946019AE8
:104278002046FFF786FE01461FE0FFF771FF002882
:10428800CFD15846FFF76FFFB4E72046FFF792FDFE
:104298000131C7E7202ECAD100212046FFF791FD42
:1042A8000746FFF75DFF60B93846FFF75CFF002857
:1042B800BDD0EA212046FFF77DFD2046FFF7C2FD6D
:1042C80066E74FF48571F5E74FF01609C8E74FF038
:1042D8001709C5E739462046FFF773FD02A9FFF71E
:1042E8001DFF78B1B9F1220F07D04846013FDDE93B
:1042F800011209F02DFF0190B3E702980EF0F8F9CA
:104308000028F2DA922E40F02081D4E9012303EB51
:10431800C20313F8053C2D2B2FD12FE1A6F126035C
:10432800022B45D8691E2046FFF74BFD01A9FFF770
:10433800F5FE002800F03B81A5F10209B9F1000F54
:1043480091DD09F1FF312046FFF73BFD02A9FFF798
:10435800E5FE90B149462046FFF733FDC0F307104C
:1043680042280AD0442808D02438C7B202980EF050
:10437800BFF91A2F0FD8002811DAA91C2046890086
:10438800FFF72CFD074646EA0523C0F8008000F138
:104398000801436001E11E2F01D90028EDD03846FD
:1043A800A9F10209DDE9011209F0D2FE0190C5E781
:1043B800292E18D100212046FFF703FD01A9FFF798
:1043C800ADFE0028D9D001212046FFF7FAFCC0F342
:1043D80007100199332816BF3F380220C0B209F0F0
:1043E8002BF901903FE7052E6AD100212046FFF7FF
:1043F800E8FC07460028C0D010F0030A04D143683F
:1044080003F0FE03562BB8D001212046FFF7D9FC54
:1044180000F00F03022BB0D1BAF1000FADD13B79F8
:104428002C2BAAD1BB6803F00F02022AA5D11B09C5
:10443800482BA2D1FB68002B9FD09A079DD11A79EF
:10444800302A9AD1D3F808B04FEA10195846FFF726
:104458003AFD68B9584959480CF098FFA1690546D2
:1044680053463A6809680DF05BF82846FCF7CCF823
:104478005846FFF74DFD07464FEAC901012204F1EE
:10448800280041F002010AF0CDFB47604846FDF7DD
:1044980062F8037820465F2B0BD1FFF78BFC204690
:1044A800FFF788FC0023082220461946FFF75EFE26
:1044B8006EE6FFF77FFC59462046FFF7C3FC5CE732
:1044C8002C2E7FF41FAF01212046FFF77AFC00F065
:1044D8000F030246022B7FF450AF00212046FFF75E
:1044E80070FC00283FF449AF87077FF446AF037993
:1044F800322B7FF442AF1109876800223048C90087
:1045080041F002010AF08EFB00283FF436AF02AA00
:104518003909406808F0B6FF029B002B3FF42DAF25
:10452800D90707D49A077FF428AF1968254A91421A
:104538007FF423AF039A002A7FF41FAF019392E61A
:104548002046013DFFF736FC8DE6962E14D1D4E9BE
:10455800012303EBC20313F8153C2D2B7FF40DAF99
:104568002A4641462046FFF71DFD00283FF405AFC7
:104578006368023B63600BE6062E18D12A46414663
:104588002046FFF70FFD00287FF402AEF5E6013D57
:104598002046FFF70FFC41F82500002DF7D1962E95
:1045A80003D139462046FFF74DFC394685E6362EBD
:1045B800E4D0332EB0E600BFBBAA0608E4C4060860
:1045C80040AA060820C90608036830B513B918467A
:1045D800136030BD9C0702D010600120F9E75C68C9
:1045E800E5B28D42F8D10833200A1360F1E70000E4
:1045F8002DE9F04FAF4B97B000240F46029005A865
:104608000192CDE90731AC49CDE90544FBF7C2FF7A
:1046180040234FF40070CDE90934FCF71DF820233E
:104628000B908020CDE90C34FCF716F82146CDE933
:104638000E0713A8CDE911440AF0BAFA019B002B22
:104648004BD0022B0CBF3F2222464FF00008DFF868
:1046580080B20023796C09A8FFF70BFC0A9C002C98
:1046680000F06281013C0B9B944D03EBC40253F8AC
:1046780034300A94D678C3F3170A914B632E5268E4
:104688009B5D00938F4B9B5D88BF43F4807305EB64
:104698004305009B03F00F0903F03003102B1ED0D5
:1046A800202B50D0B8F1000F00F01481B9F1020F9F
:1046B80040F0F280012A17D000210098531EC0074D
:1046C80006D568880BEA0000B0F5805F08BF53087C
:1046D800012B40F0DF8069B1DCE03D22B5E732B95B
:1046E80005EB4205914508D84FF00108B6E7B8F147
:1046F800000FF5D14FF00008B0E7A84635F8023BA7
:1047080003EA0B01B1F5805F0DD197F84C10C3F3A4
:104718000B03994215D109A83146FFF789FC3846A1
:10472800FEF768FFE6E7531C4B4504D23246514674
:1047380009A8FFF79EFBB8F8001009A8FFF7BAFB15
:10474800D8E70132CEE7B8F1000F0FD002F10043ED
:10475800013B35F813300BEA0303B3F5405F1BD177
:10476800002109A80392FFF76DFB039A05EB4204A9
:10477800914525D8019B0BB1052E43D0002405EBAC
:10478800490922464D455BD1012A7AD1009B5B0637
:1047980077D5002529466EE0012AA5D997F84C302F
:1047A800062B40F0F080484948480CF0EFFD0446DD
:1047B80000237A6C39680CF0B3FE2046FBF724FF1F
:1047C800A04634F8023B03EA0B01B1F5805F17D12C
:1047D800DBB297F84C1099420ED1082905D1314621
:1047E80009A80392FFF724FC039A38460392FEF7C0
:1047F80001FF039A0132BBE7002A3FF475AFCDE70A
:10480800531C93E7002109A8FFF7DBFA0028B5D16C
:10481800012109A8FFF7D5FA820700F0BE8000F051
:104828000F000228AAD009A8FFF7C4FA09A8FFF7C1
:10483800C1FA00230822514609A8FFF797FC59E757
:1048480039F8023D03EA0B01B1F5805F05D1DBB20F
:10485800082B97D10134013294E7214609A8FFF7C4
:10486800B0FA00B1013201348CE7FFF7A3FA013541
:10487800002818BF0146A54209A8F6D1FFF7E2FAB9
:1048880038E7009B1D0604D50134002109A8FFF76D
:10489800D9FA23463246CEE7012A3FF425AF12F073
:1048A80001013FF40AAFB9F1030F7FF477AF01219B
:1048B80003E700BF8F3D00088FD3000878AB0608D8
:1048C800C7AA060800AF060874AA060810C3060897
:1048D80000F0FFFF09EA020303F0010335F8134073
:1048E80004EA0B01B1F5805F13D1C4F30B0497F808
:1048F8004C10A14202F1010409D11BB9314609A8A3
:10490800FFF796FB3846FEF775FE2246E2E7224699
:10491800CCE6531C514609A83246FFF7AAFA2146AD
:1049280009A8FFF7C7FA99E613A80AF05AF91298E6
:1049380050B1416822460831FBF7B4FE129B5A6811
:104948001A60119A5A60119397F84C30002B7FF433
:1049580025AF0D9B002B3FF421AF0E9B0B981B68D6
:104968001093FBF7A1FE0E98FBF79EFE0120FBF7C4
:1049780019FE10AB93E80300029B83E80300184676
:1049880017B0BDE8F08F022B01D108490CE7042BC2
:1049980007480CBF0749084907E700283FF4EEAE6F
:1049A80003793A2B3FF43FAFE8E600BF7DAA06083B
:1049B800E4C40608A4AA0608B7AA060838B5044637
:1049C800406808B9606038BD4568FBF76DFE284649
:1049D800F7E70000F8B5054630200E461746FBF706
:1049E80054FE072D04460570C66001D0012D0FD175
:1049F800B368C3F30F13A38208F00AF904232061F4
:104A080020202783E384FBF727FEE0622046F8BDD9
:104A1800014B5B5DEFE700BFB0AF060810B5044679
:104A2800C06AFBF741FE2046BDE81040FBF73CBEDC
:104A380030B50022048D944202D80023184630BDB8
:104A4800C36A03EBC2035D688D42F7D00132F2E717
:104A580070B504460D461646FFF7EAFFC0B9E18C6B
:104A6800238D8B4208D30631E06AC900FBF70FFE9D
:104A7800E38CE0620633E384238DE26A591C02EB7F
:104A8800C300218502F833600023456043704380EA
:104A980070BD43680BB9FFF7CBBF1846F9E7F8B507
:104AA80044680F462CB9F8BD042BFCD105230370CC
:104AB800F9E723465D68002DF5D07E681846314633
:104AC800FFF7B6FF2B460028F4D00378043B022BEF
:104AD800E9D806231D463B70002231462046FFF7E1
:104AE800B7FF0378002BDFD105706468F4E7036A29
:104AF8001B8B012B1EBFC3685B18C3607047836A9A
:104B080010B504469B6F406A9847238B226A01338D
:104B1800918C9BB29942238338BF938410BD038B39
:104B2800013B10B503830446836A406AD3F8843096
:104B3800984720460121BDE81040FFF7D8BF2DE96E
:104B4800F04180461F4659B111F0030510D14E6857
:104B5800F3B293420CD1360A01F10804B54201DBE5
:104B6800BDE8F08154F8041B4046B8470135F5E725
:104B780040463B46BDE8F04118472DE9F04F044652
:104B880085B00D4691469A461BB1CB8A43F008037F
:104B9800CB82236AA5F81E90DA8A42F03002DA82C4
:104BA8001B78002B49D1A36A4A462946606AD3F884
:104BB800B4605346B44605B0BDE8F04F6047DB6AC1
:104BC80003EBC60B13F83630053B012B20D8002326
:104BD80019E0EB6A039A039903EBC20213F8313028
:104BE800062B0ED1DBF804105368994209D1A36A49
:104BF80008F10108BBF802201B69606A1F46002300
:104C0800B847039B01330393039A2B8D9342E0DC4F
:104C18000136236A1A8DB242D1DCB8F1000FC2D036
:104C2800A36A4246CDF800A02946D3F8B8604B469F
:104C3800606AB04705B0BDE8F08F0026B046E8E7E7
:104C4800F8B50F4611461A460023044685780669CA
:104C5800837003610E4BFFF772FF6368BBB9618A0B
:104C680051B1228A42B9A36A606AD3F8A030984742
:104C7800A36A606A1B6C9847238A3946628A204671
:104C8800FFF77BFF0035266118BF0125A570F8BD29
:104C98006D590008024B9D228968FFF750BF00BF7D
:104CA8004D760008024B6B228968FFF748BF00BFAA
:104CB8003D730008836A002110B50446D3F8883094
:104CC800406A9847A36A606A0F211B6B9847A36ADA
:104CD800606A0121D3F8CC30984720460321BDE80B
:104CE8001040FFF704BF38B5836A04460022406AC3
:104CF8005B6C9847A36A606AD3F8C05000231A46D1
:104D08001946A8472046BDE83840FFF7D3BF836A55
:104D1800002289681B6D0909406A1847836A8968F7
:104D2800DB6B406A184710B50446084611461A4618
:104D3800FFF750FE236A436000238360E36913B9D9
:104D4800E06110BD13469A68002AFBD19860F8E725
:104D580070B5437805460C46012B06D1036A0A460E
:104D680002211B8BFFF7DFFF2061A268284621691B
:104D78004C23BDE87040FFF763BF70B51346427817
:104D880006460C46012A04D10A460721FFF7CBFF45
:104D9800A061A56930464623E2682946FFF750FF1F
:104DA800A88A70BD2DE9F04F85B006460C4600AFC5
:104DB80011B90121116015E011F003081BD10B791D
:104DC800682B07D1CB681B0913608C68002CF0D0C6
:104DD8004FF0010804F00F03022B0FD12109B8F19D
:104DE800000FE7D0B36A0022706ADB6A984714376D
:104DF800BD46BDE8F08F4FF00008EBE7B8F1000FB3
:104E080002D1A3681B091360656804F1080A2D0A1A
:104E1800D14605F1FF3B0AEB850559F8040B00095B
:104E2800FCF78EFBA9458344F7D10BF1070323F068
:104E38000703ADEB030DE946C7F804D05AF8040B95
:104E480007F10C010009FCF792FBFB680146484694
:104E58001A463B6043F05AFE3B685545994418D1C1
:104E680059467868FCF7B0FAB36A01460022DB6A53
:104E7800706A9847B8F1000FB9D00C34A542B6D083
:104E880054F8041B0022B36A0909706A1B6D98471D
:104E9800F4E74FF02E0309F8013BCFE731B101F0F9
:104EA80003030268134304BF0B68036070470000E4
:104EB80038B5436804460D465BB9114605480CF001
:104EC80065FA2946606004F10800BDE83840FFF73C
:104ED800E5BF38BDE4C406082DE9F04F04460D4689
:104EE8008DB0164662702B7821620021072BC160B5
:104EF80005D0864AFFF7DCFF0DB0BDE8F08F012A28
:104F080005D0036B021D3146C06A1B689847637859
:104F1800D5F80C80032B10D10BAA462108F10C0000
:104F2800FFF752FB236B01460B9A9B68E06A984790
:104F380063686883002B40F0B080D8F81010C1B1C6
:104F480001F00F05022D10D10B095E2B12D004D8E9
:104F58003E2B3AD06E4A2046CCE7752B37D040F22C
:104F6800AD629342F6D1032504E06A4A2046FFF772
:104F78009FFF0225D8F814304FF0000909AA19211B
:104F880008A80893FFF720FB0590059B994520D1B9
:104F98006378012B15D9236B2946E06A5B6898472B
:104FA8006378042B0DD1206A05210395438BE26AAF
:104FB80002930023CDE90033D2E90232006907F0F9
:104FC80037FE6368002B68D196E70125D2E70025F4
:104FD800D0E7099B4FEA890B53F829100B79082B66
:104FE80002D109F10109D0E7052B01D04A4AB2E7FD
:104FF800CB68002BFAD18B681A792C2AF6D19F68D6
:1050080007F00F02022AF1D1DB680493002BEDD0E0
:105018009A07EBD11B79302BE8D1049B0AAAA4216B
:105028003F0903F10800FFF7CFFA40F29A5382468E
:105038009F421BD1012805D10A9A136803F00F0378
:10504800022B04D0354A099B53F80B1083E7E1681B
:10505800012E01F10103E3601AD01268236B1209D3
:10506800E06ADB68984798B92D4AECE740F2AE430E
:105078009F4216D1012803D10A9B1968C80701D499
:10508800284AE0E7012E03D04910E06A03F022FB2A
:105098006368002BA5D0DDF81080D8F80030A36035
:1050A8002AE740F202539F4224D1012803D90A9BE0
:1050B8001B68DA0701D41C4AC5E7012EE8D05B104B
:1050C800012706930A9B0BA953F82700FFF726F838
:1050D80008B9164AB7E7E36A01370B9807930DF04A
:1050E8000BFC0246DDE90613184603F0FAFABA4546
:1050F800E8D1CDE7012ECBD0236B02463946E06AD2
:10510800D3F810B00A9BD847C2E700BFD6B106084B
:10511800ECB10608F0B1060801B206080FB206089D
:105128001BB2060823B206082FB2060841B20608C9
:1051380070B5137805460E4614467BB9012311460F
:105148001370006AFFF7ABFC2378012B0AD1064ADB
:1051580031462846BDE87040FFF7AABE062B01D0AD
:10516800024AF7E770BD00BF5FB006086CB00608DA
:10517800014AFFF79DBE00BF4CB206080B79092B08
:105188004FF6FF7370B508BF858A044618BFC58AF5
:105198009D4202D1064AFFF78BFE218B628BA36AE0
:1051A8008A1A606A29465B6FBDE87040184700BFDD
:1051B80039B0060838B51378054633B1032B04D047
:1051C800064ABDE83840FFF773BE032451681470DF
:1051D800286AFFF75EFC00B1047038BD52B00608BB
:1051E80038B50546A9B101F00F03022B0DD10C0902
:1051F800204609F060FB002806DA224606490748DF
:105208000CF04EF96860002038BD054AFFF750FEE3
:10521800F9E70846F8E700BF9BB2060898C50608F4
:10522800A0B206082DE9F8430546006A17460E465F
:10523800C28A12F0020C06D0324A31462846BDE82E
:10524800F843FFF735BE01F00F01022917D1AC78FA
:10525800310984B1838B6446013383834FF001089D
:1052680000294CD00022FFF7F3FB03788146002B7E
:1052780030D0254AE1E7438B01334383EEE73179A8
:105288003446B94208D1B168AB780909002BF2D08D
:10529800838B01338383E1E7994213D1AC78002CE7
:1052A800CAD10123AB70B16849B301F00F0342F0D2
:1052B80004024FF00308022BC2821CBF0C46A168EF
:1052C8000909CDE7B16842F002024FF00508090963
:1052D800C282C5E7042380F8018003702B6A1B8B08
:1052E800032B0CD1482F0AD14CB1E1682846FFF7AF
:1052F80077FF99F8013043EA001089F80100BDE80A
:10530800F88300BFB7AA0608CCB106084F234E227F
:10531800FFF788BF49234822FFF784BF10B44278BB
:105328000B46046A012A04D120465DF8044BFFF7B6
:105338008FBB816A2246406A10315DF8044B02F047
:105348008DBC000070B505460C4600292DD0CA0753
:1053580006D5836A49105B6B686ABDE870401847D8
:105368008B0716D004F00F040909022C0AD0062C6A
:105378000CD0052919D0836AC9B2406A1B6BBDE8F5
:1053880070401847BDE87040FFF7C8BF836A9B6B41
:10539800E2E7836A0968DB68406A98472279034B29
:1053A8002146284653F82230D7E770BDACB006082E
:1053B8002DE9F74F05460C4616461F462046FEF7D0
:1053C800CFFE40B16EB9AB6A39469B6E686A03B0CE
:1053D800BDE8F04F18472046FEF7C5FE20B1002E65
:1053E800F1D103B0BDE8F08F002C48D0A30746D117
:1053F80063684FEA132ADBB21E2B17D1D6B10834E3
:1054080004EB8A0A5445ECD03B46324654F8041B58
:105418002846FFF7CDFFF5E75B46019A59F8041BCC
:105428002846FFF7C5FF08F1010812E01F2B20D11D
:10543800002EE4D0D5F80CB004F108094FF00008AC
:105448000BF10103EB600AF1FF33009386F00103CF
:105458000193009B4345DFDC0AF101013B463246DC
:10546800284654F82110FFF7A3FFAB6A59469B6AF8
:10547800ACE7202B03D186F00106A4689EE72146FD
:105488002846FFF75FFFAB6A3A463146DB6E686A2B
:1054980003B0BDE8F04F184738B5036A04460A461A
:1054A8001B78072B06D0022B04D0154ABDE83840DC
:1054B800FFF7FEBC956885B9A36A0F21606A1B6B6C
:1054C8009847A36A0021606AD3F8CC3098472046F1
:1054D8000121BDE83840FFF70ABBAB070BD12B7998
:1054E800AF2B08D12046A968FFF72CFF2046BDE85E
:1054F8003840FFF7DFBB29462046FFF723FFE0E7E8
:10550800B0B2060870B5437804461646CD68012B3C
:1055180006D1036A0A4631461B8BFFF704FC686113
:105528000023696920461A46FFF727FBE9682046E9
:10553800FFF708FF062E05D1A36A0021606AD3F899
:1055480088309847A36A0121606AD3F8BC500023C9
:10555800AC461A46BDE87040604738B505460C466B
:10556800C968FFF7EFFEA1682846BDE83840FFF795
:10557800E9BE0B79342B70B504460D4610D1896805
:10558800FFF7E0FEED68AD6885B9A36A0F21606A90
:105598001B6B9847A36A04220221D3F8A0301AE0B3
:1055A800836A0F21406A1B6B9847ECE7AB071FD152
:1055B8002B799A2B13D1A36A0F21606A1B6B98472A
:1055C800A9680029E6D02046FFF7BCFEA36A04229A
:1055D8000321D3F8A030606ABDE8704018479B2BC0
:1055E80006D1A9682046FFF7ADFEEB689968E8E7A1
:1055F80029462046FFF7A6FECCE710B50446896881
:10560800FFF7A0FE0021A36A606ADB6CBDE81040CA
:10561800184700002DE9F7438D680446164645B93A
:10562800F2B1836A02222946D3F8A030606A98470B
:1056380016E0AB0740F085802B79372B13D132B1B8
:10564800836A02220121406AD3F8A0309847204695
:105658002946FFF777FEA36A606AD3F8A430984713
:1056680003B0BDE8F0839F2B6BD1EB681A79A12AB0
:1056780057D1A22101AA03F10800FEF7A5FFA968E6
:10568800804619B38F0721D10B79372B1ED136B13C
:10569800A36A411C0222606AD3F8A0309847A9681F
:1056A8002046FFF74FFEA36A4FF00109606AD3F85E
:1056B800A4309847002747450ED1B9F1000FCFD144
:1056C800A36A0322791CD3F8A030AFE720464FF035
:1056D8000009FFF737FEEDE7019B53F8271099B152
:1056E8008E0711D10E79A6F1370046424641204671
:1056F800FFF728FEB9F1000F0FD03EB9164A294628
:105708002046FFF7D5FBABE70026F0E7A36A606AFF
:10571800D3F8A43098470137CDE7002EFBD00F4AC5
:10572800EDE7AB684BB19A0707D11B79372B04D14A
:1057380004222946FFF7E6FE92E70522294620467D
:10574800F8E729462046FFF7FDFDA36A0322012159
:10575800D3F8A0306AE700BFFDAF06080EB0060810
:105768000122FFF757BF70B50D46C9680446FFF719
:10577800E9FDA968A36AC1F30711606AD3F89830F4
:10578800332916BF3F390221C9B2BDE87040184716
:10579800F8B54E680C4600258968360A0C34074669
:1057A800FFF7D0FD02350834AE4200DCF8BD54F8EE
:1057B800041C3846FFF7C6FD54F8081CBB6A0909E3
:1057C800786AD3F89C302439C9B29847EAE72DE9BA
:1057D800F0414D680C4601268968A5F10D070C3487
:1057E8002D0A8046FFB2FFF7ADFDAE4201DBBDE8F2
:1057F800F08154F8041B4046FFF7A4FDD8F8283080
:105808003946D8F82400D3F89C3001369847ECE79D
:105818002DE9F0414E680D4689680446360A01278D
:10582800FFF790FD032E89BFD4F80C804FF00008D5
:1058380008F10103E3607B1C9E4222DC032E55DD48
:10584800E568606A6B1C2946E360A36A9B6E98470B
:10585800A36A4146606A9B6A9847A36A0121606A05
:105868009B689847A36A606A1B6E9847A36A606A38
:10587800DB6D9847A36A2946606A9B6ABDE8F041D8
:105888001847023729692046FFF75CFDB74207DA57
:10589800A36A606A5B6D9847A36A606A5B6E984703
:1058A800EB68A26A03F00F01606AD2F89C200A290B
:1058B80011D1C3F30713252B16BF343B0621D9B2E8
:1058C8009047B74205DAA36A42460021606A1B6F17
:1058D80098470835AFE71979852901D13221EFE7D3
:1058E8009B680BB90721EBE73321E9E7BDE8F081B5
:1058F80010B504468968FFF725FD0321A36A606A8D
:10590800D3F89830BDE8104018472DE9F0474D68A6
:105918000446D0F80C8001F108065FFA85F90027E3
:105928002D0AA9F11E03D3F1000949EB030908F177
:105938000103C360AF4206DBA36A4146606A9B6A03
:10594800BDE8F0471847013756F8041B2046FFF713
:10595800F9FCAF42EEDAA36A42464946606A1B6F19
:105968009847E7E701F00F03022B70B504460FD004
:105978000B79492B01D04F2B02D10123A37070BDA5
:105988004A2BFCD0502BFAD0482B0DD10D696DB99C
:10599800A378002BF3D1638A002BF0D020461D4A50
:1059A800BDE87040FFF784BACD68F0E7A37843B349
:1059B800238A8E6801339BB2012B23820ED1618A20
:1059C800D4E90903D1B1D3F8A03000229847A36ADB
:1059D80002220021606AD3F8A03098472946204661
:1059E800FFF7B0FCA36A606A31099B6B9847A36A0A
:1059F800606AD3F8A430BDE8704018471B6C98471C
:105A0800E5E7638A2946204601336382BDE8704092
:105A1800FFF798BC8BB006082DE9F041C56804462D
:105A2800CF688846AB1C00226E1CC3602B46B96841
:105A3800FFF7BEFCD8F808102046FFF783FCA36ADE
:105A48003146606A9B6E9847A36A2946606A9B6ADA
:105A58009847A36A606A4FF0FF319B689847F968D6
:105A68002046FFF76FFCA36A3146606A9B6ABDE86F
:105A7800F04118472DE9F047C6680446D0F814A04D
:105A88000D46B31C06F10108B0F81A90C360038BE9
:105A98008682A0F8168043838868FEF761FBF8B910
:105AA800E7687B1CE360A868FEF75DFB20B9A36A82
:105AB8004146606A9B6E9847A36A3946606A9B6A4A
:105AC8009847E9682046FFF73DFCA36A4146606AAB
